:100000000C942A000C943C000C943C000C943C0092
:100010000C943C000C943C000C943C000C943C0070
:100020000C943C000C943C000C943C000C943C0060
:100030000C943C000C943C000C943C000C943C0050
:100040000C943C000C943C000C943C000C943C0040
:100050000C943C0011241FBECFE5D8E0DEBFCDBF1D
:1000600020E0A0E6B0E001C01D92A036B207E1F7A3
:100070000E94C8010C94D7010C94000061E00E941A
:10008000E700089561E00E944D00089560E00E943D
:100090004D0008950E9481010895883008F561306F
:1000A00071F44BB321E030E0B90102C0660F771F55
:1000B0008A95E2F7CB01842B8BBB81E00895611117
:1000C0007EC04BB321E030E0B90102C0660F771F5C
:1000D0008A95E2F7CB01809584238BBB81E008955C
:1000E00098EF980F983008F5613071F448B321E02B
:1000F00030E0B90102C0660F771F9A95E2F7CB0195
:10010000842B88BB81E0089561115BC048B321E076
:1001100030E0B90102C0660F771F9A95E2F7CB0174
:100120008095842388BB81E0089590EF980F9830E4
:1001300008F5613071F445B321E030E0B90102C047
:10014000660F771F9A95E2F7CB01842B85BB81E080
:100150000895611138C045B321E030E0B90102C013
:10016000660F771F9A95E2F7CB018095842385BBB4
:1001700081E008958851883008F5613071F442B308
:1001800021E030E0B90102C0660F771F8A95E2F7DF
:10019000CB01842B82BB81E00895611116C042B36C
:1001A00021E030E0B90102C0660F771F8A95E2F7BF
:1001B000CB018095842382BB81E00895089580E07F
:1001C000089580E0089580E0089580E008958830E3
:1001D00008F5613071F44AB321E030E0B90102C0A2
:1001E000660F771F8A95E2F7CB01842B8ABB81E0EB
:1001F000089561117EC04AB321E030E0B90102C028
:10020000660F771F8A95E2F7CB01809584238ABB1E
:1002100081E0089598EF980F983008F5613071F4F7
:1002200047B321E030E0B90102C0660F771F9A950D
:10023000E2F7CB01842B87BB81E0089561115BC09D
:1002400047B321E030E0B90102C0660F771F9A95ED
:10025000E2F7CB018095842387BB81E0089590EF7E
:10026000980F983008F5613071F444B321E030E024
:10027000B90102C0660F771F9A95E2F7CB01842B74
:1002800084BB81E00895611138C044B321E030E0BF
:10029000B90102C0660F771F9A95E2F7CB018095EE
:1002A000842384BB81E008958851883008F561304B
:1002B00071F441B321E030E0B90102C0660F771F4D
:1002C0008A95E2F7CB01842B81BB81E0089561110F
:1002D00016C041B321E030E0B90102C0660F771FBC
:1002E0008A95E2F7CB018095842381BB81E0089554
:1002F000089580E0089580E0089580E0089580E00A
:100300000895883070F44BB321E030E0B90102C0A9
:10031000660F771F8A95E2F7CB0184278BBB81E0BC
:10032000089598EF980F983070F448B321E030E0CA
:10033000B90102C0660F771F9A95E2F7CB018427B7
:1003400088BB81E0089590EF980F983070F445B322
:1003500021E030E0B90102C0660F771F9A95E2F7FD
:10036000CB01842785BB81E008958851883070F4E3
:1003700042B321E030E0B90102C0660F771F8A95D1
:10038000E2F7CB01842782BB81E0089580E00895E5
:1003900083E00E943E0083E00E94420083E00E94CE
:1003A000460083E00E944A0080E090E00895F894BF
:0203B000FFCF7D
:00000001FF
